{
  "contractName": "StarNotary",
  "abi": [
    {
      "constant": true,
      "inputs": [
        {
          "name": "interfaceId",
          "type": "bytes4"
        }
      ],
      "name": "supportsInterface",
      "outputs": [
        {
          "name": "",
          "type": "bool"
        }
      ],
      "payable": false,
      "stateMutability": "view",
      "type": "function"
    },
    {
      "constant": true,
      "inputs": [
        {
          "name": "",
          "type": "uint256"
        }
      ],
      "name": "starsForSale",
      "outputs": [
        {
          "name": "",
          "type": "uint256"
        }
      ],
      "payable": false,
      "stateMutability": "view",
      "type": "function"
    },
    {
      "constant": true,
      "inputs": [
        {
          "name": "tokenId",
          "type": "uint256"
        }
      ],
      "name": "getApproved",
      "outputs": [
        {
          "name": "",
          "type": "address"
        }
      ],
      "payable": false,
      "stateMutability": "view",
      "type": "function"
    },
    {
      "constant": false,
      "inputs": [
        {
          "name": "to",
          "type": "address"
        },
        {
          "name": "tokenId",
          "type": "uint256"
        }
      ],
      "name": "approve",
      "outputs": [],
      "payable": false,
      "stateMutability": "nonpayable",
      "type": "function"
    },
    {
      "constant": true,
      "inputs": [
        {
          "name": "",
          "type": "uint256"
        }
      ],
      "name": "tokenIdToStarInfo",
      "outputs": [
        {
          "name": "name",
          "type": "string"
        }
      ],
      "payable": false,
      "stateMutability": "view",
      "type": "function"
    },
    {
      "constant": true,
      "inputs": [],
      "name": "token_symbol",
      "outputs": [
        {
          "name": "",
          "type": "string"
        }
      ],
      "payable": false,
      "stateMutability": "view",
      "type": "function"
    },
    {
      "constant": false,
      "inputs": [
        {
          "name": "from",
          "type": "address"
        },
        {
          "name": "to",
          "type": "address"
        },
        {
          "name": "tokenId",
          "type": "uint256"
        }
      ],
      "name": "transferFrom",
      "outputs": [],
      "payable": false,
      "stateMutability": "nonpayable",
      "type": "function"
    },
    {
      "constant": false,
      "inputs": [
        {
          "name": "from",
          "type": "address"
        },
        {
          "name": "to",
          "type": "address"
        },
        {
          "name": "tokenId",
          "type": "uint256"
        }
      ],
      "name": "safeTransferFrom",
      "outputs": [],
      "payable": false,
      "stateMutability": "nonpayable",
      "type": "function"
    },
    {
      "constant": true,
      "inputs": [
        {
          "name": "tokenId",
          "type": "uint256"
        }
      ],
      "name": "ownerOf",
      "outputs": [
        {
          "name": "",
          "type": "address"
        }
      ],
      "payable": false,
      "stateMutability": "view",
      "type": "function"
    },
    {
      "constant": true,
      "inputs": [
        {
          "name": "owner",
          "type": "address"
        }
      ],
      "name": "balanceOf",
      "outputs": [
        {
          "name": "",
          "type": "uint256"
        }
      ],
      "payable": false,
      "stateMutability": "view",
      "type": "function"
    },
    {
      "constant": true,
      "inputs": [],
      "name": "token_name",
      "outputs": [
        {
          "name": "",
          "type": "string"
        }
      ],
      "payable": false,
      "stateMutability": "view",
      "type": "function"
    },
    {
      "constant": false,
      "inputs": [
        {
          "name": "to",
          "type": "address"
        },
        {
          "name": "approved",
          "type": "bool"
        }
      ],
      "name": "setApprovalForAll",
      "outputs": [],
      "payable": false,
      "stateMutability": "nonpayable",
      "type": "function"
    },
    {
      "constant": false,
      "inputs": [
        {
          "name": "from",
          "type": "address"
        },
        {
          "name": "to",
          "type": "address"
        },
        {
          "name": "tokenId",
          "type": "uint256"
        },
        {
          "name": "_data",
          "type": "bytes"
        }
      ],
      "name": "safeTransferFrom",
      "outputs": [],
      "payable": false,
      "stateMutability": "nonpayable",
      "type": "function"
    },
    {
      "constant": true,
      "inputs": [
        {
          "name": "owner",
          "type": "address"
        },
        {
          "name": "operator",
          "type": "address"
        }
      ],
      "name": "isApprovedForAll",
      "outputs": [
        {
          "name": "",
          "type": "bool"
        }
      ],
      "payable": false,
      "stateMutability": "view",
      "type": "function"
    },
    {
      "anonymous": false,
      "inputs": [
        {
          "indexed": true,
          "name": "from",
          "type": "address"
        },
        {
          "indexed": true,
          "name": "to",
          "type": "address"
        },
        {
          "indexed": true,
          "name": "tokenId",
          "type": "uint256"
        }
      ],
      "name": "Transfer",
      "type": "event"
    },
    {
      "anonymous": false,
      "inputs": [
        {
          "indexed": true,
          "name": "owner",
          "type": "address"
        },
        {
          "indexed": true,
          "name": "approved",
          "type": "address"
        },
        {
          "indexed": true,
          "name": "tokenId",
          "type": "uint256"
        }
      ],
      "name": "Approval",
      "type": "event"
    },
    {
      "anonymous": false,
      "inputs": [
        {
          "indexed": true,
          "name": "owner",
          "type": "address"
        },
        {
          "indexed": true,
          "name": "operator",
          "type": "address"
        },
        {
          "indexed": false,
          "name": "approved",
          "type": "bool"
        }
      ],
      "name": "ApprovalForAll",
      "type": "event"
    },
    {
      "constant": false,
      "inputs": [
        {
          "name": "_name",
          "type": "string"
        },
        {
          "name": "_tokenId",
          "type": "uint256"
        }
      ],
      "name": "createStar",
      "outputs": [],
      "payable": false,
      "stateMutability": "nonpayable",
      "type": "function"
    },
    {
      "constant": false,
      "inputs": [
        {
          "name": "_tokenId",
          "type": "uint256"
        },
        {
          "name": "_price",
          "type": "uint256"
        }
      ],
      "name": "putStarUpForSale",
      "outputs": [],
      "payable": false,
      "stateMutability": "nonpayable",
      "type": "function"
    },
    {
      "constant": false,
      "inputs": [
        {
          "name": "_tokenId",
          "type": "uint256"
        }
      ],
      "name": "buyStar",
      "outputs": [],
      "payable": true,
      "stateMutability": "payable",
      "type": "function"
    },
    {
      "constant": true,
      "inputs": [
        {
          "name": "_tokenId",
          "type": "uint256"
        }
      ],
      "name": "lookUptokenIdToStarInfo",
      "outputs": [
        {
          "name": "",
          "type": "string"
        }
      ],
      "payable": false,
      "stateMutability": "view",
      "type": "function"
    },
    {
      "constant": false,
      "inputs": [
        {
          "name": "_tokenId1",
          "type": "uint256"
        },
        {
          "name": "_tokenId2",
          "type": "uint256"
        }
      ],
      "name": "exchangeStars",
      "outputs": [],
      "payable": false,
      "stateMutability": "nonpayable",
      "type": "function"
    },
    {
      "constant": false,
      "inputs": [
        {
          "name": "_to1",
          "type": "address"
        },
        {
          "name": "_tokenId",
          "type": "uint256"
        }
      ],
      "name": "transferStar",
      "outputs": [],
      "payable": false,
      "stateMutability": "nonpayable",
      "type": "function"
    }
  ],
  "bytecode": "0x608060405261001a6301ffc9a760e01b61003560201b60201c565b6100306380ac58cd60e01b61003560201b60201c565b6100d4565b63ffffffff60e01b817bffffffffffffffffffffffffffffffffffffffffffffffffffffffff1916141561006857600080fd5b6001600080837bffffffffffffffffffffffffffffffffffffffffffffffffffffffff19167bffffffffffffffffffffffffffffffffffffffffffffffffffffffff1916815260200190815260200160002060006101000a81548160ff02191690831515021790555050565b611ef0806100e36000396000f3fe60806040526004361061011f5760003560e01c806342842e0e116100a0578063a22cb46511610064578063a22cb465146107ef578063b88d4fde1461084c578063d7830ccb1461095e578063e7152a5c14610a12578063e985e9c514610a6d5761011f565b806342842e0e146105325780636352211e146105ad57806370a0823114610628578063947a31681461068d5780639697c0a11461071d5761011f565b80631967fd98116100e75780631967fd98146103005780631f772a34146103b457806323b872dd146104445780632f1c34ef146104bf578063316a4361146104ed5761011f565b806301ffc9a7146101245780630564b13014610196578063081812fc146101e5578063095ea7b31461026057806315e0afa5146102bb575b600080fd5b34801561013057600080fd5b5061017c6004803603602081101561014757600080fd5b8101908080357bffffffffffffffffffffffffffffffffffffffffffffffffffffffff19169060200190929190505050610af6565b604051808215151515815260200191505060405180910390f35b3480156101a257600080fd5b506101cf600480360360208110156101b957600080fd5b8101908080359060200190929190505050610b5d565b6040518082815260200191505060405180910390f35b3480156101f157600080fd5b5061021e6004803603602081101561020857600080fd5b8101908080359060200190929190505050610b75565b604051808273ffffffffffffffffffffffffffffffffffffffff1673ffffffffffffffffffffffffffffffffffffffff16815260200191505060405180910390f35b34801561026c57600080fd5b506102b96004803603604081101561028357600080fd5b81019080803573ffffffffffffffffffffffffffffffffffffffff16906020019092919080359060200190929190505050610bc4565b005b3480156102c757600080fd5b506102fe600480360360408110156102de57600080fd5b810190808035906020019092919080359060200190929190505050610d05565b005b34801561030c57600080fd5b506103396004803603602081101561032357600080fd5b8101908080359060200190929190505050610da6565b6040518080602001828103825283818151815260200191508051906020019080838360005b8381101561037957808201518184015260208101905061035e565b50505050905090810190601f1680156103a65780820380516001836020036101000a031916815260200191505b509250505060405180910390f35b3480156103c057600080fd5b506103c9610e5c565b6040518080602001828103825283818151815260200191508051906020019080838360005b838110156104095780820151818401526020810190506103ee565b50505050905090810190601f1680156104365780820380516001836020036101000a031916815260200191505b509250505060405180910390f35b34801561045057600080fd5b506104bd6004803603606081101561046757600080fd5b81019080803573ffffffffffffffffffffffffffffffffffffffff169060200190929190803573ffffffffffffffffffffffffffffffffffffffff16906020019092919080359060200190929190505050610e95565b005b6104eb600480360360208110156104d557600080fd5b8101908080359060200190929190505050610eb8565b005b3480156104f957600080fd5b506105306004803603604081101561051057600080fd5b810190808035906020019092919080359060200190929190505050611092565b005b34801561053e57600080fd5b506105ab6004803603606081101561055557600080fd5b81019080803573ffffffffffffffffffffffffffffffffffffffff169060200190929190803573ffffffffffffffffffffffffffffffffffffffff1690602001909291908035906020019092919050505061113a565b005b3480156105b957600080fd5b506105e6600480360360208110156105d057600080fd5b810190808035906020019092919050505061115a565b604051808273ffffffffffffffffffffffffffffffffffffffff1673ffffffffffffffffffffffffffffffffffffffff16815260200191505060405180910390f35b34801561063457600080fd5b506106776004803603602081101561064b57600080fd5b81019080803573ffffffffffffffffffffffffffffffffffffffff1690602001909291905050506111d6565b6040518082815260200191505060405180910390f35b34801561069957600080fd5b506106a2611258565b6040518080602001828103825283818151815260200191508051906020019080838360005b838110156106e25780820151818401526020810190506106c7565b50505050905090810190601f16801561070f5780820380516001836020036101000a031916815260200191505b509250505060405180910390f35b34801561072957600080fd5b506107ed6004803603604081101561074057600080fd5b810190808035906020019064010000000081111561075d57600080fd5b82018360208201111561076f57600080fd5b8035906020019184600183028401116401000000008311171561079157600080fd5b91908080601f016020809104026020016040519081016040528093929190818152602001838380828437600081840152601f19601f82011690508083019250505050505050919291929080359060200190929190505050611291565b005b3480156107fb57600080fd5b5061084a6004803603604081101561081257600080fd5b81019080803573ffffffffffffffffffffffffffffffffffffffff1690602001909291908035151590602001909291905050506112ed565b005b34801561085857600080fd5b5061095c6004803603608081101561086f57600080fd5b81019080803573ffffffffffffffffffffffffffffffffffffffff169060200190929190803573ffffffffffffffffffffffffffffffffffffffff16906020019092919080359060200190929190803590602001906401000000008111156108d657600080fd5b8201836020820111156108e857600080fd5b8035906020019184600183028401116401000000008311171561090a57600080fd5b91908080601f016020809104026020016040519081016040528093929190818152602001838380828437600081840152601f19601f820116905080830192505050505050509192919290505050611427565b005b34801561096a57600080fd5b506109976004803603602081101561098157600080fd5b810190808035906020019092919050505061144d565b6040518080602001828103825283818151815260200191508051906020019080838360005b838110156109d75780820151818401526020810190506109bc565b50505050905090810190601f168015610a045780820380516001836020036101000a031916815260200191505b509250505060405180910390f35b348015610a1e57600080fd5b50610a6b60048036036040811015610a3557600080fd5b81019080803573ffffffffffffffffffffffffffffffffffffffff16906020019092919080359060200190929190505050611505565b005b348015610a7957600080fd5b50610adc60048036036040811015610a9057600080fd5b81019080803573ffffffffffffffffffffffffffffffffffffffff169060200190929190803573ffffffffffffffffffffffffffffffffffffffff169060200190929190505050611551565b604051808215151515815260200191505060405180910390f35b6000806000837bffffffffffffffffffffffffffffffffffffffffffffffffffffffff19167bffffffffffffffffffffffffffffffffffffffffffffffffffffffff1916815260200190815260200160002060009054906101000a900460ff169050919050565b60066020528060005260406000206000915090505481565b6000610b80826115e5565b610b8957600080fd5b6002600083815260200190815260200160002060009054906101000a900473ffffffffffffffffffffffffffffffffffffffff169050919050565b6000610bcf8261115a565b90508073ffffffffffffffffffffffffffffffffffffffff168373ffffffffffffffffffffffffffffffffffffffff161415610c0a57600080fd5b8073ffffffffffffffffffffffffffffffffffffffff163373ffffffffffffffffffffffffffffffffffffffff161480610c4a5750610c498133611551565b5b610c5357600080fd5b826002600084815260200190815260200160002060006101000a81548173ffffffffffffffffffffffffffffffffffffffff021916908373ffffffffffffffffffffffffffffffffffffffff160217905550818373ffffffffffffffffffffffffffffffffffffffff168273ffffffffffffffffffffffffffffffffffffffff167f8c5be1e5ebec7d5bd14f71427d1e84f3dd0314c0f7b2291e5b200ac8c7c3b92560405160405180910390a4505050565b6000610d108361115a565b90506000610d1d8361115a565b90503373ffffffffffffffffffffffffffffffffffffffff168273ffffffffffffffffffffffffffffffffffffffff161480610d8457503373ffffffffffffffffffffffffffffffffffffffff168173ffffffffffffffffffffffffffffffffffffffff16145b15610da057610d94828286611657565b610d9f818385611657565b5b50505050565b6005602052806000526040600020600091509050806000018054600181600116156101000203166002900480601f016020809104026020016040519081016040528092919081815260200182805460018160011615610100020316600290048015610e525780601f10610e2757610100808354040283529160200191610e52565b820191906000526020600020905b815481529060010190602001808311610e3557829003601f168201915b5050505050905081565b6040518060400160405280600381526020017f4c4b48000000000000000000000000000000000000000000000000000000000081525081565b610e9f33826118b8565b610ea857600080fd5b610eb3838383611657565b505050565b6000600660008381526020019081526020016000205411610f41576040517f08c379a000000000000000000000000000000000000000000000000000000000815260040180806020018281038252601e8152602001807f54686520537461722073686f756c6420626520757020666f722073616c65000081525060200191505060405180910390fd5b6000600660008381526020019081526020016000205490506000610f648361115a565b9050813411610fdb576040517f08c379a000000000000000000000000000000000000000000000000000000000815260040180806020018281038252601d8152602001807f596f75206e65656420746f206861766520656e6f75676820457468657200000081525060200191505060405180910390fd5b610fe6813385611657565b6000610ff18261194d565b90508073ffffffffffffffffffffffffffffffffffffffff166108fc849081150290604051600060405180830381858888f19350505050158015611039573d6000803e3d6000fd5b508234111561108c573373ffffffffffffffffffffffffffffffffffffffff166108fc8434039081150290604051600060405180830381858888f1935050505015801561108a573d6000803e3d6000fd5b505b50505050565b3373ffffffffffffffffffffffffffffffffffffffff166110b28361115a565b73ffffffffffffffffffffffffffffffffffffffff161461111e576040517f08c379a0000000000000000000000000000000000000000000000000000000008152600401808060200182810382526027815260200180611e9e6027913960400191505060405180910390fd5b8060066000848152602001908152602001600020819055505050565b61115583838360405180602001604052806000815250611427565b505050565b6000806001600084815260200190815260200160002060009054906101000a900473ffffffffffffffffffffffffffffffffffffffff169050600073ffffffffffffffffffffffffffffffffffffffff168173ffffffffffffffffffffffffffffffffffffffff1614156111cd57600080fd5b80915050919050565b60008073ffffffffffffffffffffffffffffffffffffffff168273ffffffffffffffffffffffffffffffffffffffff16141561121157600080fd5b600360008373ffffffffffffffffffffffffffffffffffffffff1673ffffffffffffffffffffffffffffffffffffffff168152602001908152602001600020549050919050565b6040518060400160405280600881526020017f4c616e614b68616e00000000000000000000000000000000000000000000000081525081565b611299611de5565b6040518060200160405280848152509050806005600084815260200190815260200160002060008201518160000190805190602001906112da929190611df8565b509050506112e83383611957565b505050565b3373ffffffffffffffffffffffffffffffffffffffff168273ffffffffffffffffffffffffffffffffffffffff16141561132657600080fd5b80600460003373ffffffffffffffffffffffffffffffffffffffff1673ffffffffffffffffffffffffffffffffffffffff16815260200190815260200160002060008473ffffffffffffffffffffffffffffffffffffffff1673ffffffffffffffffffffffffffffffffffffffff16815260200190815260200160002060006101000a81548160ff0219169083151502179055508173ffffffffffffffffffffffffffffffffffffffff163373ffffffffffffffffffffffffffffffffffffffff167f17307eab39ab6107e8899845ad3d59bd9653f200f220920489ca2b5937696c3183604051808215151515815260200191505060405180910390a35050565b611432848484610e95565b61143e84848484611aec565b61144757600080fd5b50505050565b6060600560008381526020019081526020016000206000018054600181600116156101000203166002900480601f0160208091040260200160405190810160405280929190818152602001828054600181600116156101000203166002900480156114f95780601f106114ce576101008083540402835291602001916114f9565b820191906000526020600020905b8154815290600101906020018083116114dc57829003601f168201915b50505050509050919050565b3373ffffffffffffffffffffffffffffffffffffffff166115258261115a565b73ffffffffffffffffffffffffffffffffffffffff16141561154d5761154c338383611657565b5b5050565b6000600460008473ffffffffffffffffffffffffffffffffffffffff1673ffffffffffffffffffffffffffffffffffffffff16815260200190815260200160002060008373ffffffffffffffffffffffffffffffffffffffff1673ffffffffffffffffffffffffffffffffffffffff16815260200190815260200160002060009054906101000a900460ff16905092915050565b6000806001600084815260200190815260200160002060009054906101000a900473ffffffffffffffffffffffffffffffffffffffff169050600073ffffffffffffffffffffffffffffffffffffffff168173ffffffffffffffffffffffffffffffffffffffff161415915050919050565b8273ffffffffffffffffffffffffffffffffffffffff166116778261115a565b73ffffffffffffffffffffffffffffffffffffffff161461169757600080fd5b600073ffffffffffffffffffffffffffffffffffffffff168273ffffffffffffffffffffffffffffffffffffffff1614156116d157600080fd5b6116da81611cd5565b61172d6001600360008673ffffffffffffffffffffffffffffffffffffffff1673ffffffffffffffffffffffffffffffffffffffff16815260200190815260200160002054611d9390919063ffffffff16565b600360008573ffffffffffffffffffffffffffffffffffffffff1673ffffffffffffffffffffffffffffffffffffffff168152602001908152602001600020819055506117c36001600360008573ffffffffffffffffffffffffffffffffffffffff1673ffffffffffffffffffffffffffffffffffffffff16815260200190815260200160002054611db390919063ffffffff16565b600360008473ffffffffffffffffffffffffffffffffffffffff1673ffffffffffffffffffffffffffffffffffffffff16815260200190815260200160002081905550816001600083815260200190815260200160002060006101000a81548173ffffffffffffffffffffffffffffffffffffffff021916908373ffffffffffffffffffffffffffffffffffffffff160217905550808273ffffffffffffffffffffffffffffffffffffffff168473ffffffffffffffffffffffffffffffffffffffff167fddf252ad1be2c89b69c2b068fc378daa952ba7f163c4a11628f55a4df523b3ef60405160405180910390a4505050565b6000806118c48361115a565b90508073ffffffffffffffffffffffffffffffffffffffff168473ffffffffffffffffffffffffffffffffffffffff16148061193357508373ffffffffffffffffffffffffffffffffffffffff1661191b84610b75565b73ffffffffffffffffffffffffffffffffffffffff16145b8061194457506119438185611551565b5b91505092915050565b6000819050919050565b600073ffffffffffffffffffffffffffffffffffffffff168273ffffffffffffffffffffffffffffffffffffffff16141561199157600080fd5b61199a816115e5565b156119a457600080fd5b816001600083815260200190815260200160002060006101000a81548173ffffffffffffffffffffffffffffffffffffffff021916908373ffffffffffffffffffffffffffffffffffffffff160217905550611a496001600360008573ffffffffffffffffffffffffffffffffffffffff1673ffffffffffffffffffffffffffffffffffffffff16815260200190815260200160002054611db390919063ffffffff16565b600360008473ffffffffffffffffffffffffffffffffffffffff1673ffffffffffffffffffffffffffffffffffffffff16815260200190815260200160002081905550808273ffffffffffffffffffffffffffffffffffffffff16600073ffffffffffffffffffffffffffffffffffffffff167fddf252ad1be2c89b69c2b068fc378daa952ba7f163c4a11628f55a4df523b3ef60405160405180910390a45050565b6000611b0d8473ffffffffffffffffffffffffffffffffffffffff16611dd2565b611b1a5760019050611ccd565b60008473ffffffffffffffffffffffffffffffffffffffff1663150b7a02338887876040518563ffffffff1660e01b8152600401808573ffffffffffffffffffffffffffffffffffffffff1673ffffffffffffffffffffffffffffffffffffffff1681526020018473ffffffffffffffffffffffffffffffffffffffff1673ffffffffffffffffffffffffffffffffffffffff16815260200183815260200180602001828103825283818151815260200191508051906020019080838360005b83811015611bf5578082015181840152602081019050611bda565b50505050905090810190601f168015611c225780820380516001836020036101000a031916815260200191505b5095505050505050602060405180830381600087803b158015611c4457600080fd5b505af1158015611c58573d6000803e3d6000fd5b505050506040513d6020811015611c6e57600080fd5b8101908080519060200190929190505050905063150b7a0260e01b7bffffffffffffffffffffffffffffffffffffffffffffffffffffffff1916817bffffffffffffffffffffffffffffffffffffffffffffffffffffffff1916149150505b949350505050565b600073ffffffffffffffffffffffffffffffffffffffff166002600083815260200190815260200160002060009054906101000a900473ffffffffffffffffffffffffffffffffffffffff1673ffffffffffffffffffffffffffffffffffffffff1614611d905760006002600083815260200190815260200160002060006101000a81548173ffffffffffffffffffffffffffffffffffffffff021916908373ffffffffffffffffffffffffffffffffffffffff1602179055505b50565b600082821115611da257600080fd5b600082840390508091505092915050565b600080828401905083811015611dc857600080fd5b8091505092915050565b600080823b905060008111915050919050565b6040518060200160405280606081525090565b828054600181600116156101000203166002900490600052602060002090601f016020900481019282601f10611e3957805160ff1916838001178555611e67565b82800160010185558215611e67579182015b82811115611e66578251825591602001919060010190611e4b565b5b509050611e749190611e78565b5090565b611e9a91905b80821115611e96576000816000905550600101611e7e565b5090565b9056fe596f752063616e27742073616c6520746865205374617220796f7520646f6e2774206f776e6564a165627a7a72305820a37a631afd2b9a6c659f48ae59354627193a6a9c6f9d8b3daaf53b7deb232e000029",
  "source": "pragma solidity >=0.4.24;\n\n//Importing openzeppelin-solidity ERC-721 implemented Standard\nimport \"../node_modules/openzeppelin-solidity/contracts/token/ERC721/ERC721.sol\";\n\n// StarNotary Contract declaration inheritance the ERC721 openzeppelin implementation\ncontract StarNotary is ERC721 {\n\n    // Star data\n    struct Star {\n        string name;\n    }\n\n    // Implement Task 1 Add a name and symbol properties\n    // name: Is a short name to your token\n    // symbol: Is a short string like 'USD' -> 'American Dollar'\n    string public constant token_name = \"LanaKhan\";\n    string public constant token_symbol = \"LKH\";\n\n    // mapping the Star with the Owner Address\n    mapping(uint256 => Star) public tokenIdToStarInfo;\n    // mapping the TokenId and price\n    mapping(uint256 => uint256) public starsForSale;\n\n    // Create Star using the Struct\n    function createStar(string memory _name, uint256 _tokenId) public { // Passing the name and tokenId as a parameters\n        Star memory newStar = Star(_name); // Star is an struct so we are creating a new Star\n        tokenIdToStarInfo[_tokenId] = newStar; // Creating in memory the Star -> tokenId mapping\n        _mint(msg.sender, _tokenId); // _mint assign the the star with _tokenId to the sender address (ownership)\n    }\n\n    // Putting an Star for sale (Adding the star tokenid into the mapping starsForSale, first verify that the sender is the owner)\n    function putStarUpForSale(uint256 _tokenId, uint256 _price) public {\n        require(ownerOf(_tokenId) == msg.sender, \"You can't sale the Star you don't owned\");\n        starsForSale[_tokenId] = _price;\n    }\n\n\n    // Function that allows you to convert an address into a payable address\n    function _make_payable(address x) internal pure returns (address payable) {\n        return address(uint160(x));\n    }\n\n    function buyStar(uint256 _tokenId) public  payable {\n        require(starsForSale[_tokenId] > 0, \"The Star should be up for sale\");\n        uint256 starCost = starsForSale[_tokenId];\n        address ownerAddress = ownerOf(_tokenId);\n        require(msg.value > starCost, \"You need to have enough Ether\");\n        // We can't use _addTokenTo or_removeTokenFrom functions, now we have to use _transferFrom\n        _transferFrom(ownerAddress, msg.sender, _tokenId);\n        // We need to make this conversion to be able to use transfer() function to transfer ethers\n        address payable ownerAddressPayable = _make_payable(ownerAddress);\n        ownerAddressPayable.transfer(starCost);\n        if(msg.value > starCost) {\n            msg.sender.transfer(msg.value - starCost);\n        }\n    }\n\n    // Implement Task 1 lookUptokenIdToStarInfo\n\n\n    function lookUptokenIdToStarInfo (uint _tokenId) public view returns (string memory) {\n        //1. You should return the Star saved in tokenIdToStarInfo mapping\n        return (tokenIdToStarInfo[_tokenId].name);\n    }\n\n    // Implement Task 1 Exchange Stars function\n    function exchangeStars(uint256 _tokenId1, uint256 _tokenId2) public {\n        //1. Passing to star tokenId you will need to check if the owner of _tokenId1 or _tokenId2 is the sender\n        //2. You don't have to check for the price of the token (star)\n        //3. Get the owner of the two tokens (ownerOf(_tokenId1), ownerOf(_tokenId1)\n        //4. Use _transferFrom function to exchange the tokens.\n\n        address ownerAddress1 = ownerOf(_tokenId1);\n        address ownerAddress2 = ownerOf(_tokenId2);\n        if (ownerAddress1 == msg.sender || ownerAddress2 == msg.sender)\n{\n        _transferFrom(ownerAddress1, ownerAddress2, _tokenId1);\n        _transferFrom(ownerAddress2, ownerAddress1, _tokenId2);\n}\n    }\n\n    // Implement Task 1 Transfer Stars\n    function transferStar(address _to1, uint256 _tokenId) public {\n        //1. Check if the sender is the ownerOf(_tokenId)\n        //2. Use the transferFrom(from, to, tokenId); function to transfer the Star\n        if (ownerOf(_tokenId) == msg.sender)\n        {\n_transferFrom(msg.sender, _to1, _tokenId);\n        }\n    }\n\n}",
  "sourcePath": "/Users/mac/Downloads/Project_5_Starter_Code/contracts/StarNotary.sol",
  "compiler": {
    "name": "solc",
    "version": "0.5.8+commit.23d335f2.Emscripten.clang"
  },
  "schemaVersion": "3.0.11",
  "updatedAt": "2019-07-08T20:51:56.010Z",
  "devdoc": {
    "methods": {
      "approve(address,uint256)": {
        "details": "Approves another address to transfer the given token ID The zero address indicates there is no approved address. There can only be one approved address per token at a given time. Can only be called by the token owner or an approved operator.",
        "params": {
          "to": "address to be approved for the given token ID",
          "tokenId": "uint256 ID of the token to be approved"
        }
      },
      "balanceOf(address)": {
        "details": "Gets the balance of the specified address",
        "params": {
          "owner": "address to query the balance of"
        },
        "return": "uint256 representing the amount owned by the passed address"
      },
      "getApproved(uint256)": {
        "details": "Gets the approved address for a token ID, or zero if no address set Reverts if the token ID does not exist.",
        "params": {
          "tokenId": "uint256 ID of the token to query the approval of"
        },
        "return": "address currently approved for the given token ID"
      },
      "isApprovedForAll(address,address)": {
        "details": "Tells whether an operator is approved by a given owner",
        "params": {
          "operator": "operator address which you want to query the approval of",
          "owner": "owner address which you want to query the approval of"
        },
        "return": "bool whether the given operator is approved by the given owner"
      },
      "ownerOf(uint256)": {
        "details": "Gets the owner of the specified token ID",
        "params": {
          "tokenId": "uint256 ID of the token to query the owner of"
        },
        "return": "owner address currently marked as the owner of the given token ID"
      },
      "safeTransferFrom(address,address,uint256)": {
        "details": "Safely transfers the ownership of a given token ID to another address If the target address is a contract, it must implement `onERC721Received`, which is called upon a safe transfer, and return the magic value `bytes4(keccak256(\"onERC721Received(address,address,uint256,bytes)\"))`; otherwise, the transfer is reverted.     * Requires the msg sender to be the owner, approved, or operator",
        "params": {
          "from": "current owner of the token",
          "to": "address to receive the ownership of the given token ID",
          "tokenId": "uint256 ID of the token to be transferred"
        }
      },
      "safeTransferFrom(address,address,uint256,bytes)": {
        "details": "Safely transfers the ownership of a given token ID to another address If the target address is a contract, it must implement `onERC721Received`, which is called upon a safe transfer, and return the magic value `bytes4(keccak256(\"onERC721Received(address,address,uint256,bytes)\"))`; otherwise, the transfer is reverted. Requires the msg sender to be the owner, approved, or operator",
        "params": {
          "_data": "bytes data to send along with a safe transfer check",
          "from": "current owner of the token",
          "to": "address to receive the ownership of the given token ID",
          "tokenId": "uint256 ID of the token to be transferred"
        }
      },
      "setApprovalForAll(address,bool)": {
        "details": "Sets or unsets the approval of a given operator An operator is allowed to transfer all tokens of the sender on their behalf",
        "params": {
          "approved": "representing the status of the approval to be set",
          "to": "operator address to set the approval"
        }
      },
      "supportsInterface(bytes4)": {
        "details": "implement supportsInterface(bytes4) using a lookup table"
      },
      "transferFrom(address,address,uint256)": {
        "details": "Transfers the ownership of a given token ID to another address Usage of this method is discouraged, use `safeTransferFrom` whenever possible Requires the msg sender to be the owner, approved, or operator",
        "params": {
          "from": "current owner of the token",
          "to": "address to receive the ownership of the given token ID",
          "tokenId": "uint256 ID of the token to be transferred"
        }
      }
    }
  },
  "userdoc": {
    "methods": {}
  }
}